:100000000EC028C027C0FCC325C024C023C022C006
:1000100088C320C01FC01EC01DC0B0C4CAC41124E4
:100020001FBECFE5D2E0DEBFCDBF10E0A0E6B0E05E
:10003000E0E6FEE002C005900D92A437B107D9F7C3
:1000400020E0A4E7B0E001C01D92A73CB207E1F7B1
:100050004DD204C7D5CF8F929F92AF92BF92CF92CD
:10006000DF92EF92FF920F931F93CF93DF93EC01F8
:1000700080E1EAEAF0E0DE0101900D928A95E1F775
:100080006FB570E080E090E020E03AEF40E050E0B3
:1000900080D560E070E080E090E0A884B984CA84F4
:1000A000DB84EC84FD840E851F8583D6B22EC32E9F
:1000B000D42EE52EF62EB72FF82FE92F2887398773
:1000C0004A875B876C877D878E879F872F3F394C58
:1000D0004A495B43610571058105910551F148F17C
:1000E000288139814A815B816C817D818E819F81EC
:1000F000A1E068D6288339834A835B836C837D8340
:100100008E839F832B2D3C2D4D2D5E2D6F2D7B2FB0
:100110008F2F9E2F3A5C4A495B436109710981091F
:100120009109288739874A875B876C877D878E8707
:100130009F87DF91CF911F910F91FF90EF90DF90FC
:10014000CF90BF90AF909F908F9008952F923F9245
:100150004F925F926F927F928F929F92AF92BF92D7
:10016000CF92DF92EF92FF920F931F93CF93DF9383
:10017000CDB7DEB761970FB6F894DEBF0FBECDBF27
:100180004C01798B688BFA01DB012C9111963C9123
:10019000119712964C91129713965C91139714969F
:1001A0006C91149715967C91159716968C911697CD
:1001B00017969C91D401AC901196BC901197129611
:1001C000CC9012971396DC9013971496EC9014979A
:1001D0001596FC90159716960C91169717961C91EC
:1001E000FDD5288739874A875B876C877D878E870F
:1001F0009F872083318342835383648375838683FF
:100200009783D4011896BC91B983D4011996BC91F7
:10021000BA83D4011A962C901A971B96BC91BB8373
:10022000D4011C96BC91BC83D4011D96BC91BD83A6
:10023000D4011E96BC91BE83D4011F96BC91BF838E
:10024000A889B98918963C90189719964C901997D7
:100250001A965C901A971B966C901B971C967C9034
:100260001C971D968C901D971E969C901E971F960E
:10027000BC91B88B29813A81422D5B816C817D8153
:100280008E819F81A32CB42CC52CD62CE72CF82C66
:10029000092D1B2FACD519F110F1288539854A8518
:1002A0005B856C857D858E859F85AFEF8BD52083A3
:1002B0003183428353836483758386839783232D9D
:1002C000342D452D562D672D782D892D9B2F365396
:1002D0004546544C6F4F7F4F8F4F9F4F08C0232D83
:1002E000342D452D562D672D782D892D9889A9807F
:1002F000BA80C22CDB80EC80FD800E811F816ED520
:1003000020873187428753876487758786879787D9
:1003100061960FB6F894DEBF0FBECDBFDF91CF91CF
:100320001F910F91FF90EF90DF90CF90BF90AF9013
:100330009F908F907F906F905F904F903F902F9005
:1003400008954F925F926F927F928F929F92AF9299
:10035000BF92CF92DF92EF92FF920F931F93CF93B2
:10036000DF93CDB7DEB7A8970FB6F894DEBF0FBE08
:10037000CDBFCE0141966FDEAE014F5F5F4FBE0134
:100380006F5E7F4F8EE890E0E1DE30918500209136
:100390008400932F990F990BA090A000B090A1001A
:1003A000C090A200D090A300E090A400F090A5001F
:1003B0000091A6001091A700492F592F692F792F7E
:1003C000892FB7D3E8EEAE2EF3E0BF2EC12CD12C8F
:1003D000E12CF12C00E010E0F9D369017A01B901B8
:1003E000C70128EE33E040E050E087D329013A010D
:1003F000509283002093BE0069817A818B819C8119
:100400009601A701C6D349015A0180917E009091BF
:100410007F00A0918000B09181009C01AD01280D6A
:10042000391D4A1D5B1D2DA33EA34FA358A7D30121
:10043000C201BB0F880B982FDC0189A39AA3ABA341
:10044000BCA3A984BA84CB84DC84ED84FE840F85AC
:1004500018899201A30169A1762F862F962F69D35F
:1004600000E4A02EE2E4BE2EFFE0CF2ED12CE12C42
:10047000F12C00E010E0AAD349015A012DA13EA1C0
:100480004FA158A5820E931EA41EB51E80927E0019
:1004900090927F00A0928000B0928100B0927D0087
:1004A000A0928D009092BC0080927B0080E1FE01C2
:1004B0007196AEE8B0E001900D928A95E1F7A896AA
:1004C0000FB6F894DEBF0FBECDBFDF91CF911F9165
:1004D0000F91FF90EF90DF90CF90BF90AF909F90E3
:1004E0008F907F906F905F904F90089587E887B9C5
:1004F0008FEE86B980E883B988E184BB8AE880BF43
:1005000080E489BF8DE78EBD4AE060E670E082E45A
:100510001ED27894FCE09F2ED7E8C0E885B7877E8E
:1005200085BF85B7806285BF88958091BA0080FFBE
:100530009DC08091BA008E7F8093BA00A091860002
:10054000B0918700EB2FEE0FEE0B9D014E2F5E2F2B
:100550006E2F7E2F8E2F9E2F02E0F4D35D01CE2EC4
:10056000DE2EEE2EFE2E0E2F1E2F38D419012A015C
:100570003B01882EF92F04E0E5D359016A017B0184
:100580008C019101A201B301882D9F2F12D405E0A7
:10059000D9D35D01CE2EDE2EEE2EFE2E0E2F1E2F77
:1005A00008D403E0CFD30E2F19D401E0CBD30E2F04
:1005B00015D401E0C7D3F22E032F142FB52FF62F39
:1005C000E72FD82EE92EA0E01BD484F42150304C24
:1005D0004F4F5F4F6F4F7F4F8F4F9F4FF22E032F25
:1005E000142FB52FF62FE72FD82EE92E2F2D302FD1
:1005F000412F5B2F6F2F7E2F8D2D9E2D0EE0BBD3B5
:100600002093A0003093A1004093A2005093A30038
:100610006093A4007093A5008093A6009093A70018
:10062000EAE0AE2EB12CC12CD12CE12CF12C00E053
:1006300010E0CCD230938700209386008091860012
:100640009091870090937700809186009091870029
:100650008093A900109287001092860081E0809319
:10066000740097B813B886B1806686B98091BA00D5
:1006700081FF54CF8091BA008D7F8093BA000091A2
:100680008800109189005801C12CD12CE12CF12C4B
:1006900000E010E020E030E046E252E060E070E090
:1006A00080E090E093D22093840030938500822FE5
:1006B000932F909389008093880080918800909177
:1006C00089009093790080918800909189008093AF
:1006D0009F00109289001092880033DE2FEF84E390
:1006E0009CE0215080409040E1F700C00000109253
:1006F0007400D7B9C3B986B1806686B90FCF84B10B
:1007000025B190E0922B91FF06C080959095917055
:10071000919581959109089584B125B190E0922B2E
:1007200008951F920F920FB60F9211242F933F93AB
:100730004F935F936F937F938F939F93AF93BF93E9
:10074000EF93FF9380917400882319F0813019F1A1
:1007500046C0D5DF2091860030918700820F931F1D
:10076000909387008093860080918A0090918B00FF
:10077000019690938B0080938A0080918A009091DB
:100780008B00809760F110928B0010928A0080910C
:10079000BA00816021C0C0DF2091880030918900BB
:1007A000820F931F909389008093880080918A0024
:1007B00090918B00019690938B0080938A0080919A
:1007C0008A0090918B00809750F010928B001092CD
:1007D0008A008091BA0082608093BA003598FF91B8
:1007E000EF91BF91AF919F918F917F916F915F91A9
:1007F0004F913F912F910F900FBE0F901F90189522
:100800001F920F920FB60F921124FF920F931F9316
:100810002F933F934F935F936F937F938F939F9308
:10082000AF93BF93CF93DF93EF93FF93F090B2001A
:100830000091B3001091B400D091B500C091B60002
:10084000B091B700F091B800E091B9002F2D302F92
:10085000412F5D2F6C2F7B2F8F2F9E2F3E5E4548A3
:100860005F4F6F4F7F4F8F4F9F4F2093B20030935A
:10087000B3004093B4005093B5006093B6007093FA
:10088000B7008093B8009093B9002F3F394C4A4984
:100890005B43610571058105910509F008F441C0CC
:1008A0002091AA003091AB004091AC005091AD0076
:1008B0006091AE007091AF008091B0009091B10056
:1008C000A1E080D22093AA003093AB004093AC000B
:1008D0005093AD006093AE007093AF008093B00072
:1008E0009093B1002F2D302F412F5D2F6C2F7B2F38
:1008F0008F2F9E2F385B40425B436109710981094C
:1009000091092093B2003093B3004093B400509308
:10091000B5006093B6007093B7008093B8009093D1
:10092000B900FF91EF91DF91CF91BF91AF919F916E
:100930008F917F916F915F914F913F912F911F9177
:100940000F91FF900F900FBE0F901F9018959091F0
:10095000C6009E7F9093C600C298C0988093C10045
:100960007093C0006093BF004093C20087B38A7F3A
:1009700087BB88EA8DB980EF8EB908951F920F92D8
:100980000FB60F9211248F931092C400B898B29BA7
:1009900002C0B09BFCCFB09902C088EE01C088EBCA
:1009A0008DB980EF8EB98F910F900FBE0F901F9071
:1009B00018951F920F920FB60F9211248F939F9349
:1009C000AF93BF93EF93FF938091C400823039F1CE
:1009D00028F4882359F0813071F184C0843009F4FF
:1009E0004FC018F1853009F451C07CC08FB1882305
:1009F00031F08FB186959091C100891319C0809113
:100A0000C6008D7F8093C600789B02C081E004C041
:100A10008E7F8093C60084E08093C4005FC0C0983E
:100A200083E08093C400B8985BC08FB1882319F02D
:100A300088EA8DB929C0E09175008091C200E8175D
:100A4000C0F48091C60081FD14C0F0E0EE0FFF1FDE
:100A50008091BF009091C000E80FF91F0190F081D4
:100A6000E02D81818FB98091C60082608093C6009D
:100A700001C01FB882E08093C400B89AC09A04C035
:100A800085E08093C400B89880E72BC084E0809311
:100A9000C4008091C60080FD07C09FB1909375008F
:100AA00081608093C6001AC0E09175008091C200F9
:100AB000E817A0F4F0E0EE0FFF1F8091BF009091C7
:100AC000C000E80FF91FA081B1818FB111968C93FE
:100AD0000190F081E02D8081816080831FB8B89AF9
:100AE0008EE78EB9FF91EF91BF91AF919F918F915A
:100AF0000F900FBE0F901F901895052E97FB16F4C0
:100B000000940FD057FD05D087D107FC02D046F4E2
:100B100008C050954095309521953F4F4F4F5F4FFE
:100B2000089590958095709561957F4F8F4F9F4F59
:100B30000895DF93CF939F92A0E49A2E0024D001D2
:100B4000E001F00116950795F794E794D794C794C0
:100B5000B794A79448F41068A20FB31FC41FD51F01
:100B6000E61FF71F081E191E220F331F441F551FB3
:100B7000661F771F881F991F9A9421F79D01AE0168
:100B8000BF01C00111249F90CF91DF910895689417
:100B90000013E894A0E0B0E0EFECF5E0A4C0EFEFC4
:100BA000E7F959016A015E23550FEE08FE2C870113
:100BB0009B01AC019E23990F660B762FCB01B9DF09
:100BC000CDB7DEB7EAE0ABC0689401C0E894F92F76
:100BD000F12B0AF027C0A0E0B0E0E0EFF5E081C023
:100BE000092E05941AF467D0112392F4F0E80F2629
:100BF000FFEFE094F09400951095B094C094D094D9
:100C0000A194BF0ACF0ADF0AEF0AFF0A0F0B1F0BDE
:100C100013D007FC50D0CDB7DEB7ECE07EC06894AF
:100C200001C0E8948F929F92CF93DF9305D0DF911C
:100C3000CF919F908F90089588249924F401E40126
:100C4000B0E41B2ED4019D158E049F04E007F1072C
:100C500038F4FC014B01CA01B901AD019E011694A3
:100C6000220F331F441F551F661F771F881F991FB0
:100C7000881C991CEE1FFF1FCC1FDD1FAA1FBB1F66
:100C80008A149B04EC05FD05CE05DF05A007B1071E
:100C900048F08A189B08EC09FD09CE09DF09A00B72
:100CA000B10B21601A94E1F62EF49401AF01BE015C
:100CB000CD01000C089560957095809590953095C4
:100CC0004095509521953F4F4F4F5F4F6F4F7F4F4E
:100CD0008F4F9F4F08952F923F924F925F926F9246
:100CE0007F928F929F92AF92BF92CF92DF92EF92BC
:100CF000FF920F931F93CF93DF93CDB7DEB7CA1B3D
:100D0000DB0B0FB6F894DEBF0FBECDBF09942A8867
:100D1000398848885F846E847D848C849B84AA840F
:100D2000B984C884DF80EE80FD800C811B81AA819C
:100D3000B981CE0FD11D0FB6F894DEBF0FBECDBF67
:100D4000ED0108950F93083090F0982F872F762F9C
:100D5000652F542F432F322F22270850F4CF220F14
:100D6000331F441F551F661F771F881F991F0A9541
:100D7000B2F70F91089597FB10F8169400080F939F
:100D8000083098F00850232F342F452F562F672F07
:100D9000782F892F902DF4CF059497958795779587
:100DA000679557954795379527950A95AAF70F9117
:100DB00008952A0D3B1D4C1D5D1D6E1D7F1D801F5E
:100DC000911F08950024A7FD00942A0F301D401D97
:100DD000501D601D701D801D901D08952A193B092E
:100DE0004C095D096E097F09800B910B08952A1546
:100DF0003B054C055D056E057F058007910708954D
:100E00000024A7FD00942A17300540055005600511
:100E10007005800590050895A1E21A2EAA1BBB1B40
:100E2000FD010DC0AA1FBB1FEE1FFF1FA217B307B6
:100E3000E407F50720F0A21BB30BE40BF50B661FCC
:100E4000771F881F991F1A9469F760957095809590
:100E500090959B01AC01BD01CF010895F894FFCF9F
:100E60007600A80078009E007C008C00BB007A0011
:040E70008200BD003F
:00000001FF
