:100000000EC028C027C026C025C024C023C022C0DF
:1000100077C020C01FC01EC01DC0CFC0E9C01124C2
:100020001FBECFE5D2E0DEBFCDBF10E0A0E6B0E05E
:10003000EEEFF5E002C005900D92A236B107D9F7B8
:1000400020E0A2E6B0E001C01D92A637B207E1F7BA
:1000500002D0D3C2D5CF87E887B98FEE86B980E8C2
:1000600083B988E184BB41E060E670E082E48ED031
:10007000789485B7877E85BF85B7806285BF889570
:1000800080916D0080FFF5CF80916D008E7F809311
:100090006D006091630070916400072E000C880B66
:1000A000990BB4D120E030E040EA51E445D120E0A2
:1000B00030E849E854E436D220E030E040E05BE349
:1000C00031D220E030E040E05DE32CD26093690063
:1000D00070936A0080936B0090936C0010926400A0
:1000E00010926300C6CF84B125B190E0922B91FFAE
:1000F00006C080959095917091958195910908958C
:100100001F920F920FB60F9211242F933F934F938C
:100110005F936F937F938F939F93AF93BF93EF936F
:10012000FF93E1DF2091630030916400820F931F01
:1001300090936400809363008091650090916600C5
:100140000196909366008093650080916500909180
:100150006600809750F010926600109265008091C2
:100160006D00816080936D003598FF91EF91BF9194
:10017000AF919F918F917F916F915F914F913F913F
:100180002F910F900FBE0F901F90189590917500B2
:100190009E7F90937500C298C09880937000709372
:1001A0006F0060936E004093710087B38A7F87BBB6
:1001B00088EA8DB980EF8EB908951F920F920FB61D
:1001C0000F9211248F9310927300B898B29B02C0C3
:1001D000B09BFCCFB09902C088EE01C088EB8DB90E
:1001E00080EF8EB98F910F900FBE0F901F901895D2
:1001F0001F920F920FB60F9211248F939F93AF937C
:10020000BF93EF93FF9380917300823039F128F40C
:10021000882359F0813071F184C0843009F44FC0D3
:1002200018F1853009F451C07CC08FB1882331F0BA
:100230008FB1869590917000891319C080917500D7
:100240008D7F80937500789B02C081E004C08E7F13
:100250008093750084E0809373005FC0C09883E052
:1002600080937300B8985BC08FB1882319F088EA37
:100270008DB929C0E091620080917100E817C0F447
:100280008091750081FD14C0F0E0EE0FFF1F80919A
:100290006E0090916F00E80FF91F0190F081E02D42
:1002A00081818FB98091750082608093750001C053
:1002B0001FB882E080937300B89AC09A04C085E0AA
:1002C00080937300B89880E72BC084E0809373001C
:1002D0008091750080FD07C09FB19093620081609E
:1002E000809375001AC0E091620080917100E81758
:1002F000A0F4F0E0EE0FFF1F80916E0090916F0070
:10030000E80FF91FA081B1818FB111968C930190F4
:10031000F081E02D8081816080831FB8B89A8EE7DC
:100320008EB9FF91EF91BF91AF919F918F910F90F7
:100330000FBE0F901F9018950CD0BAC0B2D040F0ED
:10034000A9D030F021F45F3F19F09BC05111E4C0F7
:100350009EC0BFD098F39923C9F35523B1F3951BE1
:10036000550BBB27AA2762177307840738F09F5FD6
:100370005F4F220F331F441FAA1FA9F333D00E2E45
:100380003AF0E0E830D091505040E695001CCAF7B2
:1003900029D0FE2F27D0660F771F881FBB1F261777
:1003A00037074807AB07B0E809F0BB0B802DBF014A
:1003B000FF2793585F4F2AF09E3F510568F061C0B8
:1003C000ABC05F3FECF3983EDCF38695779567957D
:1003D000B795F7959F5FC9F7880F911D96958795FB
:1003E00097F90895E1E0660F771F881FBB1F62171A
:1003F00073078407BA0720F0621B730B840BBA0BD8
:10040000EE1F88F7E0950895E89409C097FB3EF445
:1004100090958095709561957F4F8F4F9F4F992351
:10042000A9F0F92F96E9BB279395F69587957795CF
:100430006795B795F111F8CFFAF4BB0F11F460FF8F
:100440001BC06F5F7F4F8F4F9F4F16C0882311F0E7
:1004500096E911C0772321F09EE8872F762F05C0FB
:10046000662371F096E8862F70E060E02AF09A9596
:10047000660F771F881FDAF7880F9695879597F98B
:10048000089597F99F6780E870E060E008959FEF16
:1004900080EC089500240A9416161706180609061B
:1004A000089500240A9412161306140605060895EA
:1004B000092E0394000C11F4882352F0BB0F40F472
:1004C000BF2B11F460FF04C06F5F7F4F8F4F9F4FB2
:1004D000089557FD9058440F551F59F05F3F71F034
:1004E0004795880F97FB991F61F09F3F79F087959B
:1004F0000895121613061406551FF2CF4695F1DF24
:1005000008C0161617061806991FF1CF86957105B3
:10051000610508940895E894BB2766277727CB01E7
:1005200097F908950AD0C4CFB5DF28F0BADF18F0E4
:10053000952309F0A6CFABCFEFCFCBDFA8F399235C
:10054000D9F35523C9F3950F50E0551FAA27EE277D
:10055000FF27BB2700240894679520F4E20FF31FC0
:10056000B41F0A1E220F331F441FAA1F6695A9F746
:10057000779530F4F30FB41F0A1E121E08F463952A
:10058000330F441FAA1F221F769599F7879520F4F1
:10059000B40F0A1E121E631F440FAA1F221F331F0F
:1005A0008695A9F7862F712D602D11249F575040F5
:1005B0008AF0E1F088234AF0EE0FFF1FBB1F661F91
:1005C000771F881F91505040A9F79E3F510570F04A
:1005D00058CFA2CF5F3FECF3983EDCF3869577953A
:1005E0006795B795F795E7959F5FC1F7FE2B880F45
:0E05F000911D9695879597F90895F894FFCF81
:0205FE00670094
:00000001FF
