S01300004C69506F50726F746563742E73726563BC
S113000010C02AC00DC92AC9D7C826C0A1C824C097
S113001023C022C021C020C01FC02EC81DC094C947
S1130020D2C911241FBECFE5D2E0DEBFCDBF10E0A0
S1130030A0E6B0E0E0E1F8E102C005900D92AA3735
S1130040B107D9F721E0AAE7B0E001C01D92A332BD
S1130050B207E1F7C7D6DACBD3CFE7E7F0E0828186
S113006081608283EDEAF0E0808180618083DF9AA1
S11300700895E7E7F0E082818E7F8283EDEAF0E085
S113008080818F7E8083DF980895882311F0E5DFD7
S11300900895EFDF08954F925F926F927F928F924F
S11300A09F92AF92BF92CF92DF92EF92FF920F9303
S11300B01F93CF93DF93EC01B22FA32FF42FE52FDF
S11300C0862F972F202F312F4B2F5A2F6F2F7E2FB4
S11300D0A884B984CA84DB84EC84FD840E851F85DE
S11300E06EDB922EA32EB42EC52ED62EE72EF82E1E
S11300F0092F288739874A875B876C877D878E8796
S11301009F872F3F394C4A495B436105710581053F
S1130110910509F008F44EC0A881F981EA816B8049
S11301205C804D807E808F802A2F3F2F4E2F562D4E
S1130130652D742D872D982DA1E04ADBA22FF32F76
S1130140E42F652E562E472E782E892E292D3A2DF2
S11301504B2D5C2D6D2D7E2D8F2D902F3A5C4A49B1
S11301605B436109710981099109922EA32EB42E72
S1130170C52ED62EE72EF82E092F2F3FB9EC3B07BC
S1130180BAE94B07BBE35B0761057105810591057E
S113019009F050F6A883F983EA836B825C824D826E
S11301A07E828F82288739874A875B876C877D8721
S11301B08E879F87DF91CF911F910F91FF90EF90D2
S11301C0DF90CF90BF90AF909F908F907F906F9073
S11301D05F904F900895DC0190E1EDEDF0E0019027
S11301E00D929A95E1F70895AF92BF92CF92DF9264
S11301F0EF92FF920F931F93CF93DF939C0190E1B3
S1130200EDEDF0E0D90101900D929A95E1F790910E
S1130210AD009C709430F9F4E9012CB5A12C0F2E9B
S1130220FDE7BF2EF02DC12CD12CE12CF12C00E0E8
S113023010E030E040E050E060E070E080E090E00A
S11302409BD9022F132F242F352F462F572F682F7A
S1130250792FCE0120DFDF91CF911F910F91FF9075
S1130260EF90DF90CF90BF90AF9008952F923F9280
S11302704F925F926F927F928F929F92AF92BF92B2
S1130280CF92DF92EF92FF920F931F93CF93DF935E
S1130290CDB7DEB72A970FB6F894DEBF0FBECDBF39
S11302A0DC0178876F832C9011963C9011971296FD
S11302B04C90129713965C90139714966C90149725
S11302C015967C90159716968C90169717969C9079
S11302D01797FB01F081FA87FB01F181F987FB0194
S11302E0F281F983FB01F381FA83FB01F481FB833F
S11302F0FB01F581FC83FB01F681FD83FB01F781A2
S1130300FE83222D332D442D552D662D772D882DDA
S1130310992DAA84B984C980DA80EB80FC800D8190
S11303201F2F6BDA11F008F04EC067DA08F44DC0E5
S113033018964C90189719965C9019971A966C9089
S11303401A971B967C901B971C968C901C971D9655
S11303509C901D971E96EC911E97EE831F962C90F1
S1130360AF81B88518963C9018971996BC91BC83B8
S1130370EF81F885B285A385F485F983EF81F8854B
S1130380F585FA83EF81F885F685FB83EF81F8859F
S1130390F785242D352D462D572D682D792D8E81E9
S11303A0922DA32CBC80CB2EDA2EE980FA800B810F
S11303B01F2F23DA09F058F4E1E01FDA08F0E0E037
S11303C08E2F819505C081E003C08FEF01C081E0CD
S11303D02A960FB6F894DEBF0FBECDBFDF91CF9142
S11303E01F910F91FF90EF90DF90CF90BF90AF904F
S11303F09F908F907F906F905F904F903F902F9041
S113040008952F923F924F925F926F927F928F92B4
S11304109F92AF92BF92CF92DF92EF92FF920F938F
S11304201F93CF93DF93CDB7DEB764970FB6F894DD
S1130430DEBF0FBECDBF9A8B898B4B01FA01DB0166
S11304402C9111963C91119712964C9112971396F8
S11304505C91139714966C91149715967C9115974B
S113046016968C91169717969C91A989BA89AC9087
S11304701196BC9011971296CC9012971396DC901B
S113048013971496EC9014971596FC90159716965E
S11304900C91169717961C91A7D929873A874B87F1
S11304A05C876D877E878F87988B20833183428317
S11304B053836483758386839783A989BA8918963D
S11304C02C90189719963C9019971A964C901A9755
S11304D01B965C901B971C966C901C971D967C90A9
S11304E01D971E96BC91BB8BA989BA891F96BC9196
S11304F0BC8BD4011896BC91B983D4011996BC91D4
S1130500BA83D4011A96BC91BB83D4011B96BC91C7
S1130510BC83D4011C96BC91BD83D4011D96BC91AF
S1130520BE83D4011E96BC91BF83D4011F96BC9197
S1130530B887222D332D442D552D662D772D8B898B
S11305409C89A980BA80CB80DC80ED80FE800F81FD
S11305501B2F53D909F008F454C029853A854B85DB
S11305605C856D857E858F859889AFEF31D9208331
S11305703183428353836483758386839783D40151
S113058018962C91189719963C9119971A964C9194
S11305901A971B965C911B971C966C911C971D9641
S11305A07C911D971E968C911E971F969C91365395
S11305B04546544C6F4F7F4F8F4F9F4FA989BA893F
S11305C01896AC9018971996BC9019971A96CC90D7
S11305D01A971B96DC901B971C96EC901C971D9603
S11305E0FC901D971E960C911E971F961C91FCD88B
S11305F020873187428753876487758786879787E3
S113060019C029813A814B815C816D817E818F8102
S11306109885A22CB32CC42CD52CE62CF72C0B8952
S11306201C89E2D82087318742875387648775877E
S11306308687978764960FB6F894DEBF0FBECDBF4A
S1130640DF91CF911F910F91FF90EF90DF90CF90AA
S1130650BF90AF909F908F907F906F905F904F90DE
S11306603F902F900895039882E08CB984E68ABD68
S11306701BBC1CBC1DBC8CE08EBD08951EBC039A23
S1130680089584B7877F84BF88E181BD80E481BDFC
S1130690089584B7877F84BF88E181BD11BC089524
S11306A0CF939091AD009695969593709817F1F02D
S11306B0C82FF894813021F060F0823021F00BC013
S11306C0E8DFD1DF08C0DADF8DED90E08DDDD9DF22
S11306D002C0D4DFDEDF7894EDEAF0E0C3708C2F43
S11306E0880F880FC081C37FC82BC083CF91089522
S11306F00098379A0895EDEAF0E080818C7F80833A
S11307003798009A0895F4DFEDEAF0E080818C7F59
S11307108160808310929C0010929B001092C20012
S11307201092C10089E887B988E886B980E883B95E
S113073008952F923F924F925F926F927F928F9281
S11307409F92AF92BF92CF92DF92EF92FF920F935C
S11307501F93CF93DF93CDB7DEB72E970FB6F894E0
S1130760DEBF0FBECDBF8091F00080FFBDC1809180
S1130770F0008E7F8093F0008091F00083FF17C01B
S113078080919B0090919C009093B0008093AF0067
S113079080919B0090919C008093880080919B00A5
S11307A090919C0090938B00A6DF81E058C2409109
S11307B09B0050919C008091AF009091B000481B29
S11307C0590B952F990F990BA12C0F2EFBEABF2ED5
S11307D0F02D0F2EF0E9CF2EF02D0F2EF1E4DF2EA9
S11307E0F02DE12CF12C00E010E0242F352F492FBF
S11307F0592F692F792F892FBFD6B12C0F2EF2EEE6
S1130800CF2EF02D6894DD24D2F8E6D6522E632E36
S1130810742E852E962E7E878B87492E2093D500A5
S11308203093D6004093D7005093D8006093D900FA
S11308307093DA009B859093DB004092DC000F2ECE
S1130840FAE0AF2EF02DC12CD12C252D362D472DBD
S1130850582D692D892F942DBFD6822F932F9093D5
S11308609C0080939B0080919B0090919C008093BE
S1130870940080919B0090919C0090939700A0908D
S1130880F100B090F200C090F300D090F400E0903A
S1130890F500F090F600E091F7001091F8002A2D91
S11308A03B2D4C2D5D2D6E2D7F2D8E2F912F04E031
S11308B04FD70E2F99D7A22EB32EC42ED52EE62EA7
S11308C0F72EE82F192F04E043D70E2F8DD702E01F
S11308D03FD72B833C834D835E836F8378878987DF
S11308E09A87252D362D472D582D692D7E858B858C
S11308F0942D2ED7A52CB62CC72CD82CE92CFE84ED
S11309000B85142D71D7E22F232E342EF52FB62FFD
S1130910A72F8C879D8705E01BD7A22EB32EC42E4C
S1130920D52EE62EF72E082F192F2E2F322D432DDC
S11309305F2F6B2F7A2F8C859D8541D7A52CB62CE4
S1130940C72CD82CE92CFE840B85142D38D7A22E65
S1130950B32EC42ED52EE62EF72E082F192F2B8159
S11309603C814D815E816F81788589859A8527D701
S11309700F2EF8EEAF2EF02D0F2EF3E0BF2EF02D3C
S1130980C12CD12CE12CF12C00E010E025D62093D1
S1130990F1003093F2004093F3005093F40060931D
S11309A0F5007093F6008093F7009093F8000F2EF3
S11309B0FAE0AF2EF02DB12C0FD6822F932F909307
S11309C09C0080939B0080919B0090919C0080935D
S11309D0820080919B0090919C0090938500252D2E
S11309E0362D472D582D692D7E858B85942D2431E8
S11309F0354041055105610571058105910539F1C0
S1130A0034F1E091EF00E0FD09C1E2FF05C0EFEE33
S1130A10F0E0808183708083EFEEF0E0808182607B
S1130A208083869586958695282F30E02830310579
S1130A3024F08081816080830AC08F5FEFEEF0E054
S1130A40880F880F880F90819770892B8083252DBC
S1130A50362D472D582D692D7E858B85942D245D4B
S1130A603E4F4F4F5F4F6F4F7F4F8F4F9F4F273EEC
S1130A70334041055105610571058105910509F072
S1130A8034F5E091EF00E0FF22C0E1FF05C0EFEE96
S1130A90F0E0808185708083EFEEF0E080818460F7
S1130AA08083869586958695282F30E028303105F9
S1130AB024F080818E7F80830AC08F5FEFEEF0E0A8
S1130AC0880F880F880F90819770892B80831092EC
S1130AD09C0010929B00EDEAF0E080818C7F8260A4
S1130AE0808381E287B913B88091F00081FF94C0BC
S1130AF08091F0008D7F8093F0008091C1009091EF
S1130B00C2008C01A82EB12EC12CD12CE12CF12CC9
S1130B1000E010E020E030E046E252E060E070E007
S1130B2080E090E084D5022F132F10939A00009355
S1130B3099001093C2000093C1008091C10090916C
S1130B40C200909391008091C1009091C200809363
S1130B508E001092C2001092C100C801012E000C38
S1130B60AA0BBB0BC296A11DB11D84359B40A105E8
S1130B70B10530F58091EE0080FD6CC082FF04C0A9
S1130B80EEEEF0E083708083EEEEF0E08081826030
S1130B908083869586958695E82FF0E0389734F023
S1130BA0EEEEF0E08081816080830AC08F5FEEEE1C
S1130BB0F0E0880F880F880F90819770892B8083CD
S1130BC007381B4030F18091EE0080FF22C081FF86
S1130BD005C0EEEEF0E0808185708083EEEEF0E0FB
S1130BE0808184608083869586958695282F30E061
S1130BF02830310524F080818E7F80830AC08F5F86
S1130C00EEEEF0E0880F880F880F90819770892BA3
S1130C10808371DD80E023C080E021C0252D362D46
S1130C20472D582D692D7E858B85942D245D3E4F4F
S1130C304F4F5F4F6F4F7F4F8F4F9F4F273E334034
S1130C4041055105610571058105910509F00CF413
S1130C501CCF3DCF07381B4008F0B9CFDACF2E9612
S1130C600FB6F894DEBF0FBECDBFDF91CF911F91B9
S1130C700F91FF90EF90DF90CF90BF90AF909F9037
S1130C808F907F906F905F904F903F902F9008953A
S1130C900F931F93CF93DF93EC0196B392FB9927A5
S1130CA090F9EDEAF0E0808190FB86F9808329B326
S1130CB030E02095309523FB222720F9EEEAF0E07E
S1130CC0808120FB80F98083F8948091F00082FF7A
S1130CD02EC08091AD008823BCF0EDEAF0E080687E
S1130CE0808380E1FE01A1EBB0E001900D928A9532
S1130CF0E1F700E010E12EE53FE540E050E060E080
S1130D0070E081EB90E0C7D980E1FE01ADE9B0E08D
S1130D1001900D928A95E1F700E816E928E930E0A0
S1130D2040E050E060E070E08DE990E0B4D980915B
S1130D30F0008B7F8093F00078948091AE0080FD6A
S1130D400CC06DE970E0CE0191DA8F3F31F0EDEA2D
S1130D50F0E080818F7780838CD98091AD0086FD0F
S1130D60DB9ADF91CF911F910F910895CF93DF9379
S1130D708091EE0080FF26C08091AD0086FD17C0F3
S1130D80DB9877D98091EE008170C82F80E0D82F4E
S1130D9080916000837090E0C817D90741F080917A
S1130DA0EE0080FD04C08091AE0080FD56D9809194
S1130DB0EE00982F9170809160008C7F892B809336
S1130DC060000DC08091EE00282F217030E08091EA
S1130DD06000837090E02817390729F7E8CFDF9186
S1130DE0CF910895CF93DF93CDB7DEB7A0970FB619
S1130DF0F894DEBF0FBECDBF19861A861B861C86EB
S1130E001D861E861F86188A19821A821B821C82DE
S1130E101D821E821F821886EDEDF0E01086118679
S1130E2012861386148615861686178610821182FA
S1130E301282138214821582168217821092F00095
S1130E401092ED001092EE001092EF001092AE009E
S1130E501092AD0086E081B9D79ADB9A939A8BB74A
S1130E6080618BBF80B5846080BD8BB780628BBF8F
S1130E7084E080B9E1E6F0E087E790E0A191B191E8
S1130E801D921D921C92E817F907C1F74BE061E629
S1130E9070E082E4F0D17894B89AB99A8091F00025
S1130EA088608093F000E5D882E0FADB2CDC809146
S1130EB0F00083FF18C011E0F12C85B7877E8860AD
S1130EC085BF85B7806285BF889533DC912F8111FA
S1130ED09F2D8091F00090FB83F98093F000809126
S1130EE0F00083FDEACF8DED90E0D2DE3FDF0F2EE0
S1130EF0FAE76F2EF0E07F2EF02D0F2EFDE78F2EF8
S1130F00F0E09F2EF02D0F2EFDEAEF2EF0E0FF2EE5
S1130F10F02D6894332434F80F2EFEEE4F2EF0E0BB
S1130F205F2EF02D0F2EF7E7AF2EF0E0BF2EF02D41
S1130F30CE01419659D929893A894B895C896D89B1
S1130F407E898F89988DF301228308E01CD4F401F3
S1130F502283BE016F5F7F4FCE01419687D98F3FB9
S1130F60C9F0F70180818370A9F4CDDBFE0171968D
S1130F70DE011196832D01900D928A95E1F700E030
S1130F8011EE25EF35E040E050E060E070E0CE0186
S1130F90019681D8F701808188237CF461EB70E0AD
S1130FA0CE01419663D98F3F41F0F70180818F775D
S1130FB08083F201808180FF50D892D1882321F070
S1130FC081E06EDB90E011C0F7018081807D19F033
S1130FD082E066DB03C080E063DB8DDBF7018081A8
S1130FE0837011F098E001C0932D85B7877E892B1B
S1130FF085BF85B7806285BF8895CE014196F4D8B8
S113100098DBCE01419644DEF50182818170282F60
S113101030E0F701908194FBCC24C0F8D12C2C153E
S11310203D05B1F032D8F701808184FF11C063DB44
S113103085EC90E0D9D8E5ECF0E0DE011196832D43
S113104001900D928A95E1F7F20180818770808387
S11310508DDE6ECF84B125B190E0922B91FF06C056
S1131060809590959170919581959109089584B199
S113107025B190E0922B08951F920F920FB60F9214
S113108011242F933F934F935F936F937F938F9389
S11310909F93AF93BF93EF93FF938091C30090917D
S11310A0C4000297E0F08091AD008370813061F458
S11310B0D1DF20919B0030919C00820F931F90936D
S11310C09C0080939B000BC0D2DF2091C100309123
S11310D0C200820F931F9093C2008093C10080913D
S11310E0C3009091C40001969093C4008093C30000
S11310F08091C3009091C4008297C8F01092C400FC
S11311001092C3008091AD00837090E0813091050E
S113111019F0029739F00BC08091F0008160809340
S1131120F00005C08091F00082608093F000FF9190
S1131130EF91BF91AF919F918F917F916F915F914B
S11311404F913F912F910F900FBE0F901F901895C4
S11311501F920F920FB60F9211240F931F932F9388
S11311603F934F935F936F937F938F939F93AF932B
S1131170BF93EF93FF93C09A0000C09800E014ED72
S113118020E330E040E050E060E070E08DED90E07E
S113119082D7FF91EF91BF91AF919F918F917F91F2
S11311A06F915F914F913F912F911F910F910F90EC
S11311B00FBE0F901F9018951F920F920FB60F92AB
S11311C011240F931F932F933F934F935F936F9328
S11311D07F938F939F93AF93BF93EF93FF93C09AA3
S11311E00000C09800E014E224EF30E040E050E05A
S11311F060E070E08DED90E04ED7FF91EF91BF91EC
S1131200AF919F918F917F916F915F914F913F919A
S11312102F911F910F910F900FBE0F901F90189553
S11312201F920F920FB60F9211248F939F93C19A1E
S11312300000C19889B390E08095909583FB88273E
S113124080F99091F00080FB92F99093F0009F91C7
S11312508F910F900FBE0F901F9018951F920F92B1
S11312600FB60F921124C19A0000C1980F900FBEBF
S11312700F901F901895909122019E7F90932201C8
S1131280DC98DE988093FD007093FC006093FB0073
S11312904093FE00E1E1F1E0108211821282138298
S11312A0148215821682178280E8808786E98187F6
S11312B088E9828713861486158616861786809198
S11312C02201897F8E7F809322018FEF90E083D764
S11312D08AB38F7A8ABB88EA8DB980EF8EB9089574
S11312E0CF93DF93CDB7DEB7A0970FB6F894DEBFE8
S11312F00FBECDBF90912201892F847092FF1BC035
S1131300CE01019668D7AE014F5E5F4FBE016F5F9D
S11313107F4F8FEF90E075D861E171E0CE01419687
S1131320A5D78F3F39F0809122018B7F80932201D2
S113133080E001C081E0A0960FB6F894DEBF0FBE36
S1131340CDBFDF91CF9108951F920F920FB60F92E8
S113135011242F933F934F935F936F937F938F93B6
S11313609F93AF93BF93EF93FF9310921001D6987E
S1131370CC9B02C0CE9BFCCFCE9908C088EE8DB921
S11313808091220184608093220107C088EB8DB98B
S1131390809122018B7F8093220180EF8EB98FEFA1
S11313A090E019D7FF91EF91BF91AF919F918F91E9
S11313B07F916F915F914F913F912F910F900FBE4D
S11313C00F901F9018951F920F920FB60F92112431
S11313D02F933F934F935F936F937F938F939F9339
S11313E0AF93BF93EF93FF93809110018230A9F1E3
S11313F030F4882361F0813009F43FC0A9C08430FF
S113140009F463C090F1853009F466C0A1C08FB1BE
S1131410882331F08FB186959091FD00891318C00F
S1131420809122018D7F80932201789B04C081E00A
S11314308093100108C0809122018E7F8093220145
S113144084E0809310011FB8D69A8EE78EB980C0CD
S113145088EA8DB980E78EB97BC0DE9883E08093FB
S11314601001D6988EE78EB973C08FB1882329F006
S113147088EA8DB980E78EB96BC08091980090910D
S1131480FE008917C8F49091220191FD15C02091A6
S1131490FB009091FC00E22FF92FE80FF11DE80FFB
S11314A0F11D0190F081E02D82818FB9809122019C
S11314B082608093220101C01FB882E080931001F2
S11314C0D69ADE9A80E78EB943C085E080931001F6
S11314D0D69880E78EB93CC084E080931001809157
S11314E0220180FD09C08FB1809398008091220170
S11314F081608093220128C0809198009091FE0021
S1131500891710F52091FB009091FC00E22FF92F30
S1131510E80FF11DE80FF11DA081B18112962C9105
S113152012978FB111969C911197892312968C93DF
S11315300190F081E02D91E08281821301C090E05E
S1131540808190FB80F980831FB8D69A8EE78EB98C
S11315508FEF90E040D6FF91EF91BF91AF919F91B3
S11315608F917F916F915F914F913F912F910F9048
S11315700FBE0F901F901895DF93CF939F92A0E416
S11315809A2E0024D001E001F00116950795F794F6
S1131590E794D794C794B794A79448F41068A20F1B
S11315A0B31FC41FD51FE61FF71F081E191E220FE5
S11315B0331F441F551F661F771F881F991F9A9456
S11315C021F79D01AE01BF01C00111249F90CF916D
S11315D0DF910895689401C0E894F92FF12B0AF083
S11315E027C0A0E0B0E0E6EFFAE081C0092E059440
S11315F01AF467D0112392F4F0E80F26FFEFE09479
S1131600F09400951095B094C094D094A194BF0A1E
S1131610CF0ADF0AEF0AFF0A0F0B1F0B13D007FCD8
S113162050D0CDB7DEB7ECE07EC0689401C0E8943A
S11316308F929F92CF93DF9305D0DF91CF919F90AC
S11316408F90089588249924F401E401B0E41B2EBA
S1131650D4019D158E049F04E007F10738F4FC01C2
S11316604B01CA01B901AD019E011694220F331F2B
S1131670441F551F661F771F881F991F881C991CBC
S1131680EE1FFF1FCC1FDD1FAA1FBB1F8A149B0464
S1131690EC05FD05CE05DF05A007B10748F08A1863
S11316A09B08EC09FD09CE09DF09A00BB10B2160F1
S11316B01A94E1F62EF49401AF01BE01CD01000CA1
S11316C008956095709580959095309540955095C6
S11316D021953F4F4F4F5F4F6F4F7F4F8F4F9F4F1E
S11316E008952F923F924F925F926F927F928F92C2
S11316F09F92AF92BF92CF92DF92EF92FF920F939D
S11317001F93CF93DF93CDB7DEB7CA1BDB0B0FB6A6
S1131710F894DEBF0FBECDBF09942A883988488863
S11317205F846E847D848C849B84AA84B984C884F9
S1131730DF80EE80FD800C811B81AA81B981CE0FF0
S1131740D11D0FB6F894DEBF0FBECDBFED010895D5
S11317500F93083090F0982F872F762F652F542FF2
S1131760432F322F22270850F4CF220F331F441F58
S1131770551F661F771F881F991F0A95B2F70F918F
S1131780089597FB10F8169400080F93083098F00A
S11317900850232F342F452F562F672F782F892F4A
S11317A0902DF4CF059497958795779567955795E0
S11317B04795379527950A95AAF70F9108952A0D0D
S11317C03B1D4C1D5D1D6E1D7F1D801F911F0895C7
S11317D00024A7FD00942A0F301D401D501D601DDC
S11317E0701D801D901D08952A193B094C095D093F
S11317F06E097F09800B910B08952A153B054C0552
S11318005D056E057F05800791070895F894FFCF65
S113181003950092008F008C00890086008300806D
S10D1820007D007A0077000001004B
S9030000FC
